{
  "contractName": "ConsumerEvent",
  "abi": [
    {
      "inputs": [
        {
          "internalType": "address",
          "name": "_ManagmentAddress",
          "type": "address"
        },
        {
          "internalType": "address",
          "name": "_nftCollection",
          "type": "address"
        }
      ],
      "stateMutability": "nonpayable",
      "type": "constructor"
    },
    {
      "anonymous": false,
      "inputs": [
        {
          "indexed": true,
          "internalType": "address",
          "name": "previousOwner",
          "type": "address"
        },
        {
          "indexed": true,
          "internalType": "address",
          "name": "newOwner",
          "type": "address"
        }
      ],
      "name": "OwnershipTransferred",
      "type": "event"
    },
    {
      "inputs": [],
      "name": "ManagmentAddress",
      "outputs": [
        {
          "internalType": "address",
          "name": "",
          "type": "address"
        }
      ],
      "stateMutability": "view",
      "type": "function"
    },
    {
      "inputs": [],
      "name": "nftCollection",
      "outputs": [
        {
          "internalType": "address",
          "name": "",
          "type": "address"
        }
      ],
      "stateMutability": "view",
      "type": "function"
    },
    {
      "inputs": [],
      "name": "owner",
      "outputs": [
        {
          "internalType": "address",
          "name": "",
          "type": "address"
        }
      ],
      "stateMutability": "view",
      "type": "function"
    },
    {
      "inputs": [],
      "name": "renounceOwnership",
      "outputs": [],
      "stateMutability": "nonpayable",
      "type": "function"
    },
    {
      "inputs": [
        {
          "internalType": "address",
          "name": "newOwner",
          "type": "address"
        }
      ],
      "name": "transferOwnership",
      "outputs": [],
      "stateMutability": "nonpayable",
      "type": "function"
    },
    {
      "inputs": [
        {
          "internalType": "address",
          "name": "_ManagmentAddress",
          "type": "address"
        }
      ],
      "name": "updateEvnetsManagmentAddress",
      "outputs": [],
      "stateMutability": "nonpayable",
      "type": "function"
    },
    {
      "inputs": [
        {
          "internalType": "address",
          "name": "_nftCollection",
          "type": "address"
        }
      ],
      "name": "updateNftCollectionAddress",
      "outputs": [],
      "stateMutability": "nonpayable",
      "type": "function"
    },
    {
      "inputs": [
        {
          "internalType": "address",
          "name": "_eventContractAddress",
          "type": "address"
        },
        {
          "internalType": "string",
          "name": "_ticketName",
          "type": "string"
        }
      ],
      "name": "buyTicket",
      "outputs": [
        {
          "internalType": "uint256",
          "name": "",
          "type": "uint256"
        }
      ],
      "stateMutability": "payable",
      "type": "function"
    }
  ],
  "bytecode": "0x60806040523480156200001157600080fd5b5060405162000f7638038062000f768339818101604052810190620000379190620001c4565b620000576200004b620000e160201b60201c565b620000e960201b60201c565b81600260006101000a81548173ffffffffffffffffffffffffffffffffffffffff021916908373ffffffffffffffffffffffffffffffffffffffff16021790555080600360006101000a81548173ffffffffffffffffffffffffffffffffffffffff021916908373ffffffffffffffffffffffffffffffffffffffff160217905550505062000253565b600033905090565b60008060009054906101000a900473ffffffffffffffffffffffffffffffffffffffff169050816000806101000a81548173ffffffffffffffffffffffffffffffffffffffff021916908373ffffffffffffffffffffffffffffffffffffffff1602179055508173ffffffffffffffffffffffffffffffffffffffff168173ffffffffffffffffffffffffffffffffffffffff167f8be0079c531659141344cd1fd0a4f28419497f9722a3daafe3b4186f6b6457e060405160405180910390a35050565b600081519050620001be8162000239565b92915050565b60008060408385031215620001d857600080fd5b6000620001e885828601620001ad565b9250506020620001fb85828601620001ad565b9150509250929050565b6000620002128262000219565b9050919050565b600073ffffffffffffffffffffffffffffffffffffffff82169050919050565b620002448162000205565b81146200025057600080fd5b50565b610d1380620002636000396000f3fe60806040526004361061007b5760003560e01c80638da5cb5b1161004e5780638da5cb5b146101145780639625001f1461013f578063c09ace601461016f578063f2fde38b1461019a5761007b565b80632048e195146100805780636588103b146100a9578063715018a6146100d457806384f2d6e9146100eb575b600080fd5b34801561008c57600080fd5b506100a760048036038101906100a291906107c0565b6101c3565b005b3480156100b557600080fd5b506100be610207565b6040516100cb91906109e3565b60405180910390f35b3480156100e057600080fd5b506100e961022d565b005b3480156100f757600080fd5b50610112600480360381019061010d91906107c0565b6102b5565b005b34801561012057600080fd5b506101296102f9565b60405161013691906109e3565b60405180910390f35b610159600480360381019061015491906107e9565b610322565b6040516101669190610ad7565b60405180910390f35b34801561017b57600080fd5b50610184610544565b60405161019191906109e3565b60405180910390f35b3480156101a657600080fd5b506101c160048036038101906101bc91906107c0565b61056a565b005b80600260006101000a81548173ffffffffffffffffffffffffffffffffffffffff021916908373ffffffffffffffffffffffffffffffffffffffff16021790555050565b600360009054906101000a900473ffffffffffffffffffffffffffffffffffffffff1681565b610235610662565b73ffffffffffffffffffffffffffffffffffffffff166102536102f9565b73ffffffffffffffffffffffffffffffffffffffff16146102a9576040517f08c379a00000000000000000000000000000000000000000000000000000000081526004016102a090610a97565b60405180910390fd5b6102b3600061066a565b565b80600360006101000a81548173ffffffffffffffffffffffffffffffffffffffff021916908373ffffffffffffffffffffffffffffffffffffffff16021790555050565b60008060009054906101000a900473ffffffffffffffffffffffffffffffffffffffff16905090565b600080600260009054906101000a900473ffffffffffffffffffffffffffffffffffffffff1673ffffffffffffffffffffffffffffffffffffffff166376977a3a85856040518363ffffffff1660e01b81526004016103829291906109fe565b602060405180830381600087803b15801561039c57600080fd5b505af11580156103b0573d6000803e3d6000fd5b505050506040513d601f19601f820116820180604052508101906103d4919061083d565b9050600073ffffffffffffffffffffffffffffffffffffffff163373ffffffffffffffffffffffffffffffffffffffff161415610446576040517f08c379a000000000000000000000000000000000000000000000000000000000815260040161043d90610a77565b60405180910390fd5b803414610488576040517f08c379a000000000000000000000000000000000000000000000000000000000815260040161047f90610ab7565b60405180910390fd5b6001600081548092919061049b90610bf7565b9190505550600360009054906101000a900473ffffffffffffffffffffffffffffffffffffffff1673ffffffffffffffffffffffffffffffffffffffff166340c10f196104e6610662565b6001546040518363ffffffff1660e01b8152600401610506929190610a2e565b600060405180830381600087803b15801561052057600080fd5b505af1158015610534573d6000803e3d6000fd5b5050505060015491505092915050565b600260009054906101000a900473ffffffffffffffffffffffffffffffffffffffff1681565b610572610662565b73ffffffffffffffffffffffffffffffffffffffff166105906102f9565b73ffffffffffffffffffffffffffffffffffffffff16146105e6576040517f08c379a00000000000000000000000000000000000000000000000000000000081526004016105dd90610a97565b60405180910390fd5b600073ffffffffffffffffffffffffffffffffffffffff168173ffffffffffffffffffffffffffffffffffffffff161415610656576040517f08c379a000000000000000000000000000000000000000000000000000000000815260040161064d90610a57565b60405180910390fd5b61065f8161066a565b50565b600033905090565b60008060009054906101000a900473ffffffffffffffffffffffffffffffffffffffff169050816000806101000a81548173ffffffffffffffffffffffffffffffffffffffff021916908373ffffffffffffffffffffffffffffffffffffffff1602179055508173ffffffffffffffffffffffffffffffffffffffff168173ffffffffffffffffffffffffffffffffffffffff167f8be0079c531659141344cd1fd0a4f28419497f9722a3daafe3b4186f6b6457e060405160405180910390a35050565b600061074161073c84610b23565b610af2565b90508281526020810184848401111561075957600080fd5b610764848285610bb5565b509392505050565b60008135905061077b81610caf565b92915050565b60008151905061079081610cc6565b92915050565b600082601f8301126107a757600080fd5b81356107b784826020860161072e565b91505092915050565b6000602082840312156107d257600080fd5b60006107e08482850161076c565b91505092915050565b600080604083850312156107fc57600080fd5b600061080a8582860161076c565b925050602083013567ffffffffffffffff81111561082757600080fd5b61083385828601610796565b9150509250929050565b60006020828403121561084f57600080fd5b600061085d84828501610781565b91505092915050565b61086f81610b6f565b82525050565b600061088082610b53565b61088a8185610b5e565b935061089a818560208601610bc4565b6108a381610c9e565b840191505092915050565b60006108bb602683610b5e565b91507f4f776e61626c653a206e6577206f776e657220697320746865207a65726f206160008301527f64647265737300000000000000000000000000000000000000000000000000006020830152604082019050919050565b6000610921601783610b5e565b91507f416464726573732063616e6e6f7420626520656d7074790000000000000000006000830152602082019050919050565b6000610961602083610b5e565b91507f4f776e61626c653a2063616c6c6572206973206e6f7420746865206f776e65726000830152602082019050919050565b60006109a1601583610b5e565b91507f416d6f756e74206973206e6f7420636f727265637400000000000000000000006000830152602082019050919050565b6109dd81610bab565b82525050565b60006020820190506109f86000830184610866565b92915050565b6000604082019050610a136000830185610866565b8181036020830152610a258184610875565b90509392505050565b6000604082019050610a436000830185610866565b610a5060208301846109d4565b9392505050565b60006020820190508181036000830152610a70816108ae565b9050919050565b60006020820190508181036000830152610a9081610914565b9050919050565b60006020820190508181036000830152610ab081610954565b9050919050565b60006020820190508181036000830152610ad081610994565b9050919050565b6000602082019050610aec60008301846109d4565b92915050565b6000604051905081810181811067ffffffffffffffff82111715610b1957610b18610c6f565b5b8060405250919050565b600067ffffffffffffffff821115610b3e57610b3d610c6f565b5b601f19601f8301169050602081019050919050565b600081519050919050565b600082825260208201905092915050565b6000610b7a82610b8b565b9050919050565b6000819050919050565b600073ffffffffffffffffffffffffffffffffffffffff82169050919050565b6000819050919050565b82818337600083830152505050565b60005b83811015610be2578082015181840152602081019050610bc7565b83811115610bf1576000848401525b50505050565b6000610c0282610bab565b91507fffffffffffffffffffffffffffffffffffffffffffffffffffffffffffffffff821415610c3557610c34610c40565b5b600182019050919050565b7f4e487b7100000000000000000000000000000000000000000000000000000000600052601160045260246000fd5b7f4e487b7100000000000000000000000000000000000000000000000000000000600052604160045260246000fd5b6000601f19601f8301169050919050565b610cb881610b6f565b8114610cc357600080fd5b50565b610ccf81610b81565b8114610cda57600080fd5b5056fea2646970667358221220d3513ced6a587e3a8828deb9598cc53ee03aee95e2bc749e66a26fcae3969e7f64736f6c63430008000033",
  "immutableReferences": {},
  "source": "// SPDX-License-Identifier: MIT\r\npragma solidity ^0.8.0;\r\n\r\nimport \"@openzeppelin/contracts/utils/Context.sol\";\r\nimport \"@openzeppelin/contracts/access/Ownable.sol\";\r\nimport \"@openzeppelin/contracts/token/ERC721/IERC721.sol\";\r\nimport \"./ConsumerEvent.sol\";\r\nimport \"./EventsManagment.sol\";\r\nimport \"./interfaces/IConsumerEvent.sol\";\r\nimport \"./interfaces/IEventsManagment.sol\";\r\n\r\ncontract ConsumerEvent is Ownable, IConsumerEvent {\r\n    /* using Counters for Counters.Counter; */\r\n    uint256 private tokenId;\r\n    address public ManagmentAddress;\r\n    address public nftCollection;\r\n\r\n    constructor (address _ManagmentAddress, address _nftCollection) {\r\n      ManagmentAddress = _ManagmentAddress;\r\n      nftCollection = _nftCollection;\r\n    }\r\n\r\n    function updateEvnetsManagmentAddress (address _ManagmentAddress) public {\r\n      ManagmentAddress = _ManagmentAddress;\r\n    }\r\n\r\n    function updateNftCollectionAddress (address _nftCollection) public {\r\n      nftCollection = _nftCollection;\r\n    }\r\n\r\n    function buyTicket (address _eventContractAddress, string memory _ticketName) public override payable returns (uint256) {\r\n      int price = IEventsManagment(ManagmentAddress).getPrice(_eventContractAddress, _ticketName);\r\n\r\n      require(msg.sender != address(0), \"Address cannot be empty\");\r\n      require(int(msg.value) == price, \"Amount is not correct\");\r\n\r\n      tokenId++;\r\n      IERC721(nftCollection).mint(_msgSender(), tokenId);\r\n      return tokenId;\r\n    }\r\n}\r\n",
  "sourcePath": "C:\\Users\\User\\Desktop\\Ethereum\\EventsManagment\\contracts\\ConsumerEvent.sol",
  "compiler": {
    "name": "solc",
    "version": "0.8.0+commit.c7dfd78e.Emscripten.clang"
  },
  "schemaVersion": "3.3.3",
  "updatedAt": "2021-07-30T16:15:34.437Z",
  "devdoc": {
    "kind": "dev",
    "methods": {
      "owner()": {
        "details": "Returns the address of the current owner."
      },
      "renounceOwnership()": {
        "details": "Leaves the contract without owner. It will not be possible to call `onlyOwner` functions anymore. Can only be called by the current owner. NOTE: Renouncing ownership will leave the contract without an owner, thereby removing any functionality that is only available to the owner."
      },
      "transferOwnership(address)": {
        "details": "Transfers ownership of the contract to a new account (`newOwner`). Can only be called by the current owner."
      }
    },
    "version": 1
  },
  "userdoc": {
    "kind": "user",
    "methods": {},
    "version": 1
  }
}