{
  "contractName": "EventsManagment",
  "abi": [
    {
      "anonymous": false,
      "inputs": [
        {
          "indexed": true,
          "internalType": "address",
          "name": "previousOwner",
          "type": "address"
        },
        {
          "indexed": true,
          "internalType": "address",
          "name": "newOwner",
          "type": "address"
        }
      ],
      "name": "OwnershipTransferred",
      "type": "event"
    },
    {
      "inputs": [],
      "name": "owner",
      "outputs": [
        {
          "internalType": "address",
          "name": "",
          "type": "address"
        }
      ],
      "stateMutability": "view",
      "type": "function"
    },
    {
      "inputs": [],
      "name": "priceConsumerV3Address",
      "outputs": [
        {
          "internalType": "address",
          "name": "",
          "type": "address"
        }
      ],
      "stateMutability": "view",
      "type": "function"
    },
    {
      "inputs": [],
      "name": "renounceOwnership",
      "outputs": [],
      "stateMutability": "nonpayable",
      "type": "function"
    },
    {
      "inputs": [
        {
          "internalType": "address",
          "name": "newOwner",
          "type": "address"
        }
      ],
      "name": "transferOwnership",
      "outputs": [],
      "stateMutability": "nonpayable",
      "type": "function"
    },
    {
      "inputs": [
        {
          "internalType": "int256",
          "name": "_priceUsdinUahRate",
          "type": "int256"
        }
      ],
      "name": "updateUsdinUahRate",
      "outputs": [
        {
          "internalType": "int256",
          "name": "",
          "type": "int256"
        }
      ],
      "stateMutability": "nonpayable",
      "type": "function"
    },
    {
      "inputs": [
        {
          "internalType": "bytes32",
          "name": "salt",
          "type": "bytes32"
        },
        {
          "internalType": "string",
          "name": "_eventName",
          "type": "string"
        },
        {
          "internalType": "string",
          "name": "_eventDescription",
          "type": "string"
        },
        {
          "internalType": "string",
          "name": "_eventDates",
          "type": "string"
        },
        {
          "internalType": "string",
          "name": "_eventPlace",
          "type": "string"
        },
        {
          "internalType": "bool",
          "name": "_eventStatus",
          "type": "bool"
        },
        {
          "internalType": "string",
          "name": "name",
          "type": "string"
        },
        {
          "internalType": "string",
          "name": "symbol",
          "type": "string"
        },
        {
          "internalType": "string",
          "name": "baseTokenURI",
          "type": "string"
        }
      ],
      "name": "createEvent",
      "outputs": [],
      "stateMutability": "nonpayable",
      "type": "function"
    },
    {
      "inputs": [
        {
          "internalType": "address",
          "name": "eventContractAddress",
          "type": "address"
        },
        {
          "internalType": "bool",
          "name": "_eventStatus",
          "type": "bool"
        }
      ],
      "name": "changeEventStatus",
      "outputs": [],
      "stateMutability": "nonpayable",
      "type": "function"
    },
    {
      "inputs": [
        {
          "internalType": "address",
          "name": "_eventContractAddress",
          "type": "address"
        },
        {
          "components": [
            {
              "internalType": "uint8",
              "name": "ticketIndex",
              "type": "uint8"
            },
            {
              "internalType": "string",
              "name": "ticketName",
              "type": "string"
            },
            {
              "internalType": "int256",
              "name": "ticketPrice",
              "type": "int256"
            },
            {
              "internalType": "uint8",
              "name": "ticketAmount",
              "type": "uint8"
            }
          ],
          "internalType": "struct EventsManagment.ticketDetails[]",
          "name": "ticketArray",
          "type": "tuple[]"
        }
      ],
      "name": "addTickets",
      "outputs": [],
      "stateMutability": "nonpayable",
      "type": "function"
    },
    {
      "inputs": [
        {
          "internalType": "address",
          "name": "_eventContractAddress",
          "type": "address"
        },
        {
          "internalType": "string",
          "name": "_ticketName",
          "type": "string"
        }
      ],
      "name": "getPrice",
      "outputs": [
        {
          "internalType": "int256",
          "name": "",
          "type": "int256"
        }
      ],
      "stateMutability": "view",
      "type": "function"
    },
    {
      "inputs": [
        {
          "internalType": "address",
          "name": "_eventContractAddress",
          "type": "address"
        }
      ],
      "name": "getEventName",
      "outputs": [
        {
          "internalType": "string",
          "name": "",
          "type": "string"
        }
      ],
      "stateMutability": "view",
      "type": "function"
    },
    {
      "inputs": [
        {
          "internalType": "address",
          "name": "_eventContractAddress",
          "type": "address"
        }
      ],
      "name": "getEventDescription",
      "outputs": [
        {
          "internalType": "string",
          "name": "",
          "type": "string"
        }
      ],
      "stateMutability": "view",
      "type": "function"
    },
    {
      "inputs": [
        {
          "internalType": "address",
          "name": "_eventContractAddress",
          "type": "address"
        }
      ],
      "name": "getEventDates",
      "outputs": [
        {
          "internalType": "string",
          "name": "",
          "type": "string"
        }
      ],
      "stateMutability": "view",
      "type": "function"
    },
    {
      "inputs": [
        {
          "internalType": "address",
          "name": "_eventContractAddress",
          "type": "address"
        }
      ],
      "name": "getEventPlace",
      "outputs": [
        {
          "internalType": "string",
          "name": "",
          "type": "string"
        }
      ],
      "stateMutability": "view",
      "type": "function"
    }
  ],
  "bytecode": "0x6080604052601b60015534801561001557600080fd5b5061003261002761003760201b60201c565b61003f60201b60201c565b610103565b600033905090565b60008060009054906101000a900473ffffffffffffffffffffffffffffffffffffffff169050816000806101000a81548173ffffffffffffffffffffffffffffffffffffffff021916908373ffffffffffffffffffffffffffffffffffffffff1602179055508173ffffffffffffffffffffffffffffffffffffffff168173ffffffffffffffffffffffffffffffffffffffff167f8be0079c531659141344cd1fd0a4f28419497f9722a3daafe3b4186f6b6457e060405160405180910390a35050565b615fc080620001136000396000f3fe60806040523480156200001157600080fd5b5060043610620000e25760003560e01c8063715018a611620000995780639eb5d03e116200006f5780639eb5d03e146200024d578063ec4150971462000283578063f2fde38b14620002b9578063fef0784114620002d957620000e2565b8063715018a614620001e957806376977a3a14620001f55780638da5cb5b146200022b57620000e2565b80630a0994aa14620000e7578063279ac013146200011d578063279b88f5146200013d5780633689eec0146200015d57806340f4b3731462000193578063567872df14620001b3575b600080fd5b620001056004803603810190620000ff9190620017db565b620002fb565b60405162000114919062001d74565b60405180910390f35b6200013b600480360381019062000135919062001900565b620003d7565b005b6200015b600480360381019062000155919062001807565b620007a7565b005b6200017b600480360381019062000175919062001a88565b62000be9565b6040516200018a919062001d57565b60405180910390f35b620001b16004803603810190620001ab919062001865565b62000c7f565b005b620001d16004803603810190620001cb9190620017db565b62000d60565b604051620001e0919062001d74565b60405180910390f35b620001f362000e3c565b005b6200021360048036038101906200020d9190620018a6565b62000ecd565b60405162000222919062001d57565b60405180910390f35b6200023562001045565b60405162000244919062001d0d565b60405180910390f35b6200026b6004803603810190620002659190620017db565b6200106e565b6040516200027a919062001d74565b60405180910390f35b620002a160048036038101906200029b9190620017db565b6200114a565b604051620002b0919062001d74565b60405180910390f35b620002d76004803603810190620002d19190620017db565b62001226565b005b620002e36200132a565b604051620002f2919062001d0d565b60405180910390f35b6060600360008373ffffffffffffffffffffffffffffffffffffffff1673ffffffffffffffffffffffffffffffffffffffff16815260200190815260200160002060010180546200034c9062002191565b80601f01602080910402602001604051908101604052809291908181526020018280546200037a9062002191565b8015620003cb5780601f106200039f57610100808354040283529160200191620003cb565b820191906000526020600020905b815481529060010190602001808311620003ad57829003601f168201915b50505050509050919050565b620003e162001350565b73ffffffffffffffffffffffffffffffffffffffff166200040162001045565b73ffffffffffffffffffffffffffffffffffffffff16146200045a576040517f08c379a0000000000000000000000000000000000000000000000000000000008152600401620004519062001e0c565b60405180910390fd5b6000898484846040516200046e9062001527565b6200047c9392919062001d98565b8190604051809103906000f59050801580156200049d573d6000803e3d6000fd5b50905060008a3083604051620004b39062001535565b620004c092919062001d2a565b8190604051809103906000f5905080158015620004e1573d6000803e3d6000fd5b50905060008b604051620004f59062001543565b8190604051809103906000f590508015801562000516573d6000803e3d6000fd5b50905080600260006101000a81548173ffffffffffffffffffffffffffffffffffffffff021916908373ffffffffffffffffffffffffffffffffffffffff1602179055508a600360008473ffffffffffffffffffffffffffffffffffffffff1673ffffffffffffffffffffffffffffffffffffffff1681526020019081526020016000206000019080519060200190620005b292919062001551565b5089600360008473ffffffffffffffffffffffffffffffffffffffff1673ffffffffffffffffffffffffffffffffffffffff16815260200190815260200160002060010190805190602001906200060b92919062001551565b5088600360008473ffffffffffffffffffffffffffffffffffffffff1673ffffffffffffffffffffffffffffffffffffffff16815260200190815260200160002060020190805190602001906200066492919062001551565b5087600360008473ffffffffffffffffffffffffffffffffffffffff1673ffffffffffffffffffffffffffffffffffffffff1681526020019081526020016000206003019080519060200190620006bd92919062001551565b5086600360008473ffffffffffffffffffffffffffffffffffffffff1673ffffffffffffffffffffffffffffffffffffffff16815260200190815260200160002060040160006101000a81548160ff02191690831515021790555082600360008473ffffffffffffffffffffffffffffffffffffffff1673ffffffffffffffffffffffffffffffffffffffff16815260200190815260200160002060040160016101000a81548173ffffffffffffffffffffffffffffffffffffffff021916908373ffffffffffffffffffffffffffffffffffffffff160217905550505050505050505050505050565b620007b162001350565b73ffffffffffffffffffffffffffffffffffffffff16620007d162001045565b73ffffffffffffffffffffffffffffffffffffffff16146200082a576040517f08c379a0000000000000000000000000000000000000000000000000000000008152600401620008219062001e0c565b60405180910390fd5b60005b828290508160ff16101562000be35780600460008673ffffffffffffffffffffffffffffffffffffffff1673ffffffffffffffffffffffffffffffffffffffff1681526020019081526020016000208260ff1681548110620008b8577f4e487b7100000000000000000000000000000000000000000000000000000000600052603260045260246000fd5b906000526020600020906004020160000160006101000a81548160ff021916908360ff16021790555082828260ff168181106200091e577f4e487b7100000000000000000000000000000000000000000000000000000000600052603260045260246000fd5b905060200281019062000932919062001e88565b806020019062000943919062001e2e565b600460008773ffffffffffffffffffffffffffffffffffffffff1673ffffffffffffffffffffffffffffffffffffffff1681526020019081526020016000208360ff1681548110620009be577f4e487b7100000000000000000000000000000000000000000000000000000000600052603260045260246000fd5b90600052602060002090600402016001019190620009de929190620015e2565b5082828260ff1681811062000a1c577f4e487b7100000000000000000000000000000000000000000000000000000000600052603260045260246000fd5b905060200281019062000a30919062001e88565b60400135600460008673ffffffffffffffffffffffffffffffffffffffff1673ffffffffffffffffffffffffffffffffffffffff1681526020019081526020016000208260ff168154811062000aaf577f4e487b7100000000000000000000000000000000000000000000000000000000600052603260045260246000fd5b90600052602060002090600402016002018190555082828260ff1681811062000b01577f4e487b7100000000000000000000000000000000000000000000000000000000600052603260045260246000fd5b905060200281019062000b15919062001e88565b606001602081019062000b29919062001ae0565b600460008673ffffffffffffffffffffffffffffffffffffffff1673ffffffffffffffffffffffffffffffffffffffff1681526020019081526020016000208260ff168154811062000ba4577f4e487b7100000000000000000000000000000000000000000000000000000000600052603260045260246000fd5b906000526020600020906004020160030160006101000a81548160ff021916908360ff160217905550808062000bda90620021c7565b9150506200082d565b50505050565b600062000bf562001350565b73ffffffffffffffffffffffffffffffffffffffff1662000c1562001045565b73ffffffffffffffffffffffffffffffffffffffff161462000c6e576040517f08c379a000000000000000000000000000000000000000000000000000000000815260040162000c659062001e0c565b60405180910390fd5b816001819055506001549050919050565b62000c8962001350565b73ffffffffffffffffffffffffffffffffffffffff1662000ca962001045565b73ffffffffffffffffffffffffffffffffffffffff161462000d02576040517f08c379a000000000000000000000000000000000000000000000000000000000815260040162000cf99062001e0c565b60405180910390fd5b80600360008473ffffffffffffffffffffffffffffffffffffffff1673ffffffffffffffffffffffffffffffffffffffff16815260200190815260200160002060040160006101000a81548160ff0219169083151502179055505050565b6060600360008373ffffffffffffffffffffffffffffffffffffffff1673ffffffffffffffffffffffffffffffffffffffff168152602001908152602001600020600001805462000db19062002191565b80601f016020809104026020016040519081016040528092919081815260200182805462000ddf9062002191565b801562000e305780601f1062000e045761010080835404028352916020019162000e30565b820191906000526020600020905b81548152906001019060200180831162000e1257829003601f168201915b50505050509050919050565b62000e4662001350565b73ffffffffffffffffffffffffffffffffffffffff1662000e6662001045565b73ffffffffffffffffffffffffffffffffffffffff161462000ebf576040517f08c379a000000000000000000000000000000000000000000000000000000000815260040162000eb69062001e0c565b60405180910390fd5b62000ecb600062001358565b565b600080600260009054906101000a900473ffffffffffffffffffffffffffffffffffffffff1673ffffffffffffffffffffffffffffffffffffffff16638c3c9a556040518163ffffffff1660e01b815260040160206040518083038186803b15801562000f3957600080fd5b505afa15801562000f4e573d6000803e3d6000fd5b505050506040513d601f19601f8201168201806040525081019062000f74919062001ab4565b905060006001548262000f88919062001fc4565b9050600062000f9886866200141c565b9050600082600460008973ffffffffffffffffffffffffffffffffffffffff1673ffffffffffffffffffffffffffffffffffffffff1681526020019081526020016000208360ff168154811062001018577f4e487b7100000000000000000000000000000000000000000000000000000000600052603260045260246000fd5b90600052602060002090600402016002015462001036919062001f50565b90508094505050505092915050565b60008060009054906101000a900473ffffffffffffffffffffffffffffffffffffffff16905090565b6060600360008373ffffffffffffffffffffffffffffffffffffffff1673ffffffffffffffffffffffffffffffffffffffff1681526020019081526020016000206003018054620010bf9062002191565b80601f0160208091040260200160405190810160405280929190818152602001828054620010ed9062002191565b80156200113e5780601f1062001112576101008083540402835291602001916200113e565b820191906000526020600020905b8154815290600101906020018083116200112057829003601f168201915b50505050509050919050565b6060600360008373ffffffffffffffffffffffffffffffffffffffff1673ffffffffffffffffffffffffffffffffffffffff16815260200190815260200160002060020180546200119b9062002191565b80601f0160208091040260200160405190810160405280929190818152602001828054620011c99062002191565b80156200121a5780601f10620011ee576101008083540402835291602001916200121a565b820191906000526020600020905b815481529060010190602001808311620011fc57829003601f168201915b50505050509050919050565b6200123062001350565b73ffffffffffffffffffffffffffffffffffffffff166200125062001045565b73ffffffffffffffffffffffffffffffffffffffff1614620012a9576040517f08c379a0000000000000000000000000000000000000000000000000000000008152600401620012a09062001e0c565b60405180910390fd5b600073ffffffffffffffffffffffffffffffffffffffff168173ffffffffffffffffffffffffffffffffffffffff1614156200131c576040517f08c379a0000000000000000000000000000000000000000000000000000000008152600401620013139062001dea565b60405180910390fd5b620013278162001358565b50565b600260009054906101000a900473ffffffffffffffffffffffffffffffffffffffff1681565b600033905090565b60008060009054906101000a900473ffffffffffffffffffffffffffffffffffffffff169050816000806101000a81548173ffffffffffffffffffffffffffffffffffffffff021916908373ffffffffffffffffffffffffffffffffffffffff1602179055508173ffffffffffffffffffffffffffffffffffffffff168173ffffffffffffffffffffffffffffffffffffffff167f8be0079c531659141344cd1fd0a4f28419497f9722a3daafe3b4186f6b6457e060405160405180910390a35050565b600080600090505b8260405160200162001437919062001cdb565b60405160208183030381529060405280519060200120600460008673ffffffffffffffffffffffffffffffffffffffff1673ffffffffffffffffffffffffffffffffffffffff1681526020019081526020016000208260ff1681548110620014c8577f4e487b7100000000000000000000000000000000000000000000000000000000600052603260045260246000fd5b9060005260206000209060040201600101604051602001620014eb919062001cf4565b60405160208183030381529060405280519060200120146200151d5780806200151490620021c7565b91505062001424565b8091505092915050565b6129cc806200234683390190565b610f768062004d1283390190565b6103038062005c8883390190565b8280546200155f9062002191565b90600052602060002090601f016020900481019282620015835760008555620015cf565b82601f106200159e57805160ff1916838001178555620015cf565b82800160010185558215620015cf579182015b82811115620015ce578251825591602001919060010190620015b1565b5b509050620015de919062001673565b5090565b828054620015f09062002191565b90600052602060002090601f01602090048101928262001614576000855562001660565b82601f106200162f57803560ff191683800117855562001660565b8280016001018555821562001660579182015b828111156200165f57823582559160200191906001019062001642565b5b5090506200166f919062001673565b5090565b5b808211156200168e57600081600090555060010162001674565b5090565b6000620016a9620016a38462001ee1565b62001ead565b905082815260208101848484011115620016c257600080fd5b620016cf8482856200214c565b509392505050565b600081359050620016e881620022c3565b92915050565b60008083601f8401126200170157600080fd5b8235905067ffffffffffffffff8111156200171b57600080fd5b6020830191508360208202830111156200173457600080fd5b9250929050565b6000813590506200174c81620022dd565b92915050565b6000813590506200176381620022f7565b92915050565b6000813590506200177a8162002311565b92915050565b600081519050620017918162002311565b92915050565b600082601f830112620017a957600080fd5b8135620017bb84826020860162001692565b91505092915050565b600081359050620017d5816200232b565b92915050565b600060208284031215620017ee57600080fd5b6000620017fe84828501620016d7565b91505092915050565b6000806000604084860312156200181d57600080fd5b60006200182d86828701620016d7565b935050602084013567ffffffffffffffff8111156200184b57600080fd5b6200185986828701620016ee565b92509250509250925092565b600080604083850312156200187957600080fd5b60006200188985828601620016d7565b92505060206200189c858286016200173b565b9150509250929050565b60008060408385031215620018ba57600080fd5b6000620018ca85828601620016d7565b925050602083013567ffffffffffffffff811115620018e857600080fd5b620018f68582860162001797565b9150509250929050565b60008060008060008060008060006101208a8c0312156200192057600080fd5b6000620019308c828d0162001752565b99505060208a013567ffffffffffffffff8111156200194e57600080fd5b6200195c8c828d0162001797565b98505060408a013567ffffffffffffffff8111156200197a57600080fd5b620019888c828d0162001797565b97505060608a013567ffffffffffffffff811115620019a657600080fd5b620019b48c828d0162001797565b96505060808a013567ffffffffffffffff811115620019d257600080fd5b620019e08c828d0162001797565b95505060a0620019f38c828d016200173b565b94505060c08a013567ffffffffffffffff81111562001a1157600080fd5b62001a1f8c828d0162001797565b93505060e08a013567ffffffffffffffff81111562001a3d57600080fd5b62001a4b8c828d0162001797565b9250506101008a013567ffffffffffffffff81111562001a6a57600080fd5b62001a788c828d0162001797565b9150509295985092959850929598565b60006020828403121562001a9b57600080fd5b600062001aab8482850162001769565b91505092915050565b60006020828403121562001ac757600080fd5b600062001ad78482850162001780565b91505092915050565b60006020828403121562001af357600080fd5b600062001b0384828501620017c4565b91505092915050565b62001b1781620020eb565b82525050565b62001b288162002115565b82525050565b600062001b3b8262001f29565b62001b47818562001f34565b935062001b598185602086016200215b565b62001b6481620022b2565b840191505092915050565b600062001b7c8262001f29565b62001b88818562001f45565b935062001b9a8185602086016200215b565b80840191505092915050565b6000815462001bb58162002191565b62001bc1818662001f45565b9450600182166000811462001bdf576001811462001bf15762001c28565b60ff1983168652818601935062001c28565b62001bfc8562001f14565b60005b8381101562001c205781548189015260018201915060208101905062001bff565b838801955050505b50505092915050565b600062001c4060268362001f34565b91507f4f776e61626c653a206e6577206f776e657220697320746865207a65726f206160008301527f64647265737300000000000000000000000000000000000000000000000000006020830152604082019050919050565b600062001ca860208362001f34565b91507f4f776e61626c653a2063616c6c6572206973206e6f7420746865206f776e65726000830152602082019050919050565b600062001ce9828462001b6f565b915081905092915050565b600062001d02828462001ba6565b915081905092915050565b600060208201905062001d24600083018462001b0c565b92915050565b600060408201905062001d41600083018562001b0c565b62001d50602083018462001b0c565b9392505050565b600060208201905062001d6e600083018462001b1d565b92915050565b6000602082019050818103600083015262001d90818462001b2e565b905092915050565b6000606082019050818103600083015262001db4818662001b2e565b9050818103602083015262001dca818562001b2e565b9050818103604083015262001de0818462001b2e565b9050949350505050565b6000602082019050818103600083015262001e058162001c31565b9050919050565b6000602082019050818103600083015262001e278162001c99565b9050919050565b6000808335600160200384360303811262001e4857600080fd5b80840192508235915067ffffffffffffffff82111562001e6757600080fd5b60208301925060018202360383131562001e8057600080fd5b509250929050565b60008235600160800383360303811262001ea157600080fd5b80830191505092915050565b6000604051905081810181811067ffffffffffffffff8211171562001ed75762001ed662002283565b5b8060405250919050565b600067ffffffffffffffff82111562001eff5762001efe62002283565b5b601f19601f8301169050602081019050919050565b60008190508160005260206000209050919050565b600081519050919050565b600082825260208201905092915050565b600081905092915050565b600062001f5d8262002115565b915062001f6a8362002115565b92508262001f7d5762001f7c62002225565b5b600160000383147f80000000000000000000000000000000000000000000000000000000000000008314161562001fb95762001fb8620021f6565b5b828205905092915050565b600062001fd18262002115565b915062001fde8362002115565b9250827f7fffffffffffffffffffffffffffffffffffffffffffffffffffffffffffffff048211600084136000841316161562002020576200201f620021f6565b5b817f8000000000000000000000000000000000000000000000000000000000000000058312600084126000841316161562002060576200205f620021f6565b5b827f80000000000000000000000000000000000000000000000000000000000000000582126000841360008412161615620020a0576200209f620021f6565b5b827f7fffffffffffffffffffffffffffffffffffffffffffffffffffffffffffffff0582126000841260008412161615620020e057620020df620021f6565b5b828202905092915050565b6000620020f8826200211f565b9050919050565b60008115159050919050565b6000819050919050565b6000819050919050565b600073ffffffffffffffffffffffffffffffffffffffff82169050919050565b600060ff82169050919050565b82818337600083830152505050565b60005b838110156200217b5780820151818401526020810190506200215e565b838111156200218b576000848401525b50505050565b60006002820490506001821680620021aa57607f821691505b60208210811415620021c157620021c062002254565b5b50919050565b6000620021d4826200213f565b915060ff821415620021eb57620021ea620021f6565b5b600182019050919050565b7f4e487b7100000000000000000000000000000000000000000000000000000000600052601160045260246000fd5b7f4e487b7100000000000000000000000000000000000000000000000000000000600052601260045260246000fd5b7f4e487b7100000000000000000000000000000000000000000000000000000000600052602260045260246000fd5b7f4e487b7100000000000000000000000000000000000000000000000000000000600052604160045260246000fd5b6000601f19601f8301169050919050565b620022ce81620020eb565b8114620022da57600080fd5b50565b620022e881620020ff565b8114620022f457600080fd5b50565b62002302816200210b565b81146200230e57600080fd5b50565b6200231c8162002115565b81146200232857600080fd5b50565b62002336816200213f565b81146200234257600080fd5b5056fe60806040523480156200001157600080fd5b50604051620029cc380380620029cc8339818101604052810190620000379190620001ad565b82600090805190602001906200004f9291906200008b565b508160019080519060200190620000689291906200008b565b508060029080519060200190620000819291906200008b565b505050506200037f565b8280546200009990620002eb565b90600052602060002090601f016020900481019282620000bd576000855562000109565b82601f10620000d857805160ff191683800117855562000109565b8280016001018555821562000109579182015b8281111562000108578251825591602001919060010190620000eb565b5b5090506200011891906200011c565b5090565b5b80821115620001375760008160009055506001016200011d565b5090565b6000620001526200014c8462000282565b6200024e565b9050828152602081018484840111156200016b57600080fd5b62000178848285620002b5565b509392505050565b600082601f8301126200019257600080fd5b8151620001a48482602086016200013b565b91505092915050565b600080600060608486031215620001c357600080fd5b600084015167ffffffffffffffff811115620001de57600080fd5b620001ec8682870162000180565b935050602084015167ffffffffffffffff8111156200020a57600080fd5b620002188682870162000180565b925050604084015167ffffffffffffffff8111156200023657600080fd5b620002448682870162000180565b9150509250925092565b6000604051905081810181811067ffffffffffffffff8211171562000278576200027762000350565b5b8060405250919050565b600067ffffffffffffffff821115620002a0576200029f62000350565b5b601f19601f8301169050602081019050919050565b60005b83811015620002d5578082015181840152602081019050620002b8565b83811115620002e5576000848401525b50505050565b600060028204905060018216806200030457607f821691505b602082108114156200031b576200031a62000321565b5b50919050565b7f4e487b7100000000000000000000000000000000000000000000000000000000600052602260045260246000fd5b7f4e487b7100000000000000000000000000000000000000000000000000000000600052604160045260246000fd5b61263d806200038f6000396000f3fe608060405234801561001057600080fd5b50600436106100ea5760003560e01c80636352211e1161008c578063a22cb46511610066578063a22cb4651461025b578063b88d4fde14610277578063c87b56dd14610293578063e985e9c5146102c3576100ea565b80636352211e146101dd57806370a082311461020d57806395d89b411461023d576100ea565b8063095ea7b3116100c8578063095ea7b31461016d57806323b872dd1461018957806340c10f19146101a557806342842e0e146101c1576100ea565b806301ffc9a7146100ef57806306fdde031461011f578063081812fc1461013d575b600080fd5b6101096004803603810190610104919061190d565b6102f3565b6040516101169190612005565b60405180910390f35b6101276103d5565b6040516101349190612020565b60405180910390f35b6101576004803603810190610152919061195f565b610467565b6040516101649190611f9e565b60405180910390f35b610187600480360381019061018291906118d1565b6104ec565b005b6101a3600480360381019061019e91906117cb565b610604565b005b6101bf60048036038101906101ba91906118d1565b610664565b005b6101db60048036038101906101d691906117cb565b610672565b005b6101f760048036038101906101f2919061195f565b610692565b6040516102049190611f9e565b60405180910390f35b61022760048036038101906102229190611766565b610744565b6040516102349190612202565b60405180910390f35b6102456107fc565b6040516102529190612020565b60405180910390f35b61027560048036038101906102709190611895565b61088e565b005b610291600480360381019061028c919061181a565b610a0f565b005b6102ad60048036038101906102a8919061195f565b610a71565b6040516102ba9190612020565b60405180910390f35b6102dd60048036038101906102d8919061178f565b610b18565b6040516102ea9190612005565b60405180910390f35b60007fc06d57d4000000000000000000000000000000000000000000000000000000007bffffffffffffffffffffffffffffffffffffffffffffffffffffffff1916827bffffffffffffffffffffffffffffffffffffffffffffffffffffffff191614806103be57507f5b5e139f000000000000000000000000000000000000000000000000000000007bffffffffffffffffffffffffffffffffffffffffffffffffffffffff1916827bffffffffffffffffffffffffffffffffffffffffffffffffffffffff1916145b806103ce57506103cd82610bac565b5b9050919050565b6060600080546103e490612432565b80601f016020809104026020016040519081016040528092919081815260200182805461041090612432565b801561045d5780601f106104325761010080835404028352916020019161045d565b820191906000526020600020905b81548152906001019060200180831161044057829003601f168201915b5050505050905090565b600061047282610c16565b6104b1576040517f08c379a00000000000000000000000000000000000000000000000000000000081526004016104a890612162565b60405180910390fd5b6005600083815260200190815260200160002060009054906101000a900473ffffffffffffffffffffffffffffffffffffffff169050919050565b60006104f782610692565b90508073ffffffffffffffffffffffffffffffffffffffff168373ffffffffffffffffffffffffffffffffffffffff161415610568576040517f08c379a000000000000000000000000000000000000000000000000000000000815260040161055f906121c2565b60405180910390fd5b8073ffffffffffffffffffffffffffffffffffffffff16610587610c82565b73ffffffffffffffffffffffffffffffffffffffff1614806105b657506105b5816105b0610c82565b610b18565b5b6105f5576040517f08c379a00000000000000000000000000000000000000000000000000000000081526004016105ec906120e2565b60405180910390fd5b6105ff8383610c8a565b505050565b61061561060f610c82565b82610d43565b610654576040517f08c379a000000000000000000000000000000000000000000000000000000000815260040161064b906121e2565b60405180910390fd5b61065f838383610e21565b505050565b61066e828261107d565b5050565b61068d83838360405180602001604052806000815250610a0f565b505050565b6000806003600084815260200190815260200160002060009054906101000a900473ffffffffffffffffffffffffffffffffffffffff169050600073ffffffffffffffffffffffffffffffffffffffff168173ffffffffffffffffffffffffffffffffffffffff16141561073b576040517f08c379a000000000000000000000000000000000000000000000000000000000815260040161073290612122565b60405180910390fd5b80915050919050565b60008073ffffffffffffffffffffffffffffffffffffffff168273ffffffffffffffffffffffffffffffffffffffff1614156107b5576040517f08c379a00000000000000000000000000000000000000000000000000000000081526004016107ac90612102565b60405180910390fd5b600460008373ffffffffffffffffffffffffffffffffffffffff1673ffffffffffffffffffffffffffffffffffffffff168152602001908152602001600020549050919050565b60606001805461080b90612432565b80601f016020809104026020016040519081016040528092919081815260200182805461083790612432565b80156108845780601f1061085957610100808354040283529160200191610884565b820191906000526020600020905b81548152906001019060200180831161086757829003601f168201915b5050505050905090565b610896610c82565b73ffffffffffffffffffffffffffffffffffffffff168273ffffffffffffffffffffffffffffffffffffffff161415610904576040517f08c379a00000000000000000000000000000000000000000000000000000000081526004016108fb906120a2565b60405180910390fd5b8060066000610911610c82565b73ffffffffffffffffffffffffffffffffffffffff1673ffffffffffffffffffffffffffffffffffffffff16815260200190815260200160002060008473ffffffffffffffffffffffffffffffffffffffff1673ffffffffffffffffffffffffffffffffffffffff16815260200190815260200160002060006101000a81548160ff0219169083151502179055508173ffffffffffffffffffffffffffffffffffffffff166109be610c82565b73ffffffffffffffffffffffffffffffffffffffff167f17307eab39ab6107e8899845ad3d59bd9653f200f220920489ca2b5937696c3183604051610a039190612005565b60405180910390a35050565b610a20610a1a610c82565b83610d43565b610a5f576040517f08c379a0000000000000000000000000000000000000000000000000000000008152600401610a56906121e2565b60405180910390fd5b610a6b8484848461124b565b50505050565b6060610a7c82610c16565b610abb576040517f08c379a0000000000000000000000000000000000000000000000000000000008152600401610ab2906121a2565b60405180910390fd5b6000610ac56112a7565b90506000815111610ae55760405180602001604052806000815250610b10565b80610aef84611339565b604051602001610b00929190611f7a565b6040516020818303038152906040525b915050919050565b6000600660008473ffffffffffffffffffffffffffffffffffffffff1673ffffffffffffffffffffffffffffffffffffffff16815260200190815260200160002060008373ffffffffffffffffffffffffffffffffffffffff1673ffffffffffffffffffffffffffffffffffffffff16815260200190815260200160002060009054906101000a900460ff16905092915050565b60007f01ffc9a7000000000000000000000000000000000000000000000000000000007bffffffffffffffffffffffffffffffffffffffffffffffffffffffff1916827bffffffffffffffffffffffffffffffffffffffffffffffffffffffff1916149050919050565b60008073ffffffffffffffffffffffffffffffffffffffff166003600084815260200190815260200160002060009054906101000a900473ffffffffffffffffffffffffffffffffffffffff1673ffffffffffffffffffffffffffffffffffffffff1614159050919050565b600033905090565b816005600083815260200190815260200160002060006101000a81548173ffffffffffffffffffffffffffffffffffffffff021916908373ffffffffffffffffffffffffffffffffffffffff160217905550808273ffffffffffffffffffffffffffffffffffffffff16610cfd83610692565b73ffffffffffffffffffffffffffffffffffffffff167f8c5be1e5ebec7d5bd14f71427d1e84f3dd0314c0f7b2291e5b200ac8c7c3b92560405160405180910390a45050565b6000610d4e82610c16565b610d8d576040517f08c379a0000000000000000000000000000000000000000000000000000000008152600401610d84906120c2565b60405180910390fd5b6000610d9883610692565b90508073ffffffffffffffffffffffffffffffffffffffff168473ffffffffffffffffffffffffffffffffffffffff161480610e0757508373ffffffffffffffffffffffffffffffffffffffff16610def84610467565b73ffffffffffffffffffffffffffffffffffffffff16145b80610e185750610e178185610b18565b5b91505092915050565b8273ffffffffffffffffffffffffffffffffffffffff16610e4182610692565b73ffffffffffffffffffffffffffffffffffffffff1614610e97576040517f08c379a0000000000000000000000000000000000000000000000000000000008152600401610e8e90612182565b60405180910390fd5b600073ffffffffffffffffffffffffffffffffffffffff168273ffffffffffffffffffffffffffffffffffffffff161415610f07576040517f08c379a0000000000000000000000000000000000000000000000000000000008152600401610efe90612082565b60405180910390fd5b610f128383836114e6565b610f1d600082610c8a565b6001600460008573ffffffffffffffffffffffffffffffffffffffff1673ffffffffffffffffffffffffffffffffffffffff1681526020019081526020016000206000828254610f6d9190612348565b925050819055506001600460008473ffffffffffffffffffffffffffffffffffffffff1673ffffffffffffffffffffffffffffffffffffffff1681526020019081526020016000206000828254610fc491906122c1565b92505081905550816003600083815260200190815260200160002060006101000a81548173ffffffffffffffffffffffffffffffffffffffff021916908373ffffffffffffffffffffffffffffffffffffffff160217905550808273ffffffffffffffffffffffffffffffffffffffff168473ffffffffffffffffffffffffffffffffffffffff167fddf252ad1be2c89b69c2b068fc378daa952ba7f163c4a11628f55a4df523b3ef60405160405180910390a4505050565b600073ffffffffffffffffffffffffffffffffffffffff168273ffffffffffffffffffffffffffffffffffffffff1614156110ed576040517f08c379a00000000000000000000000000000000000000000000000000000000081526004016110e490612142565b60405180910390fd5b6110f681610c16565b15611136576040517f08c379a000000000000000000000000000000000000000000000000000000000815260040161112d90612062565b60405180910390fd5b611142600083836114e6565b6001600460008473ffffffffffffffffffffffffffffffffffffffff1673ffffffffffffffffffffffffffffffffffffffff168152602001908152602001600020600082825461119291906122c1565b92505081905550816003600083815260200190815260200160002060006101000a81548173ffffffffffffffffffffffffffffffffffffffff021916908373ffffffffffffffffffffffffffffffffffffffff160217905550808273ffffffffffffffffffffffffffffffffffffffff16600073ffffffffffffffffffffffffffffffffffffffff167fddf252ad1be2c89b69c2b068fc378daa952ba7f163c4a11628f55a4df523b3ef60405160405180910390a45050565b611256848484610e21565b611262848484846114eb565b6112a1576040517f08c379a000000000000000000000000000000000000000000000000000000000815260040161129890612042565b60405180910390fd5b50505050565b6060600280546112b690612432565b80601f01602080910402602001604051908101604052809291908181526020018280546112e290612432565b801561132f5780601f106113045761010080835404028352916020019161132f565b820191906000526020600020905b81548152906001019060200180831161131257829003601f168201915b5050505050905090565b60606000821415611381576040518060400160405280600181526020017f300000000000000000000000000000000000000000000000000000000000000081525090506114e1565b600082905060005b600082146113b357808061139c90612464565b915050600a826113ac9190612317565b9150611389565b60008167ffffffffffffffff8111156113f5577f4e487b7100000000000000000000000000000000000000000000000000000000600052604160045260246000fd5b6040519080825280601f01601f1916602001820160405280156114275781602001600182028036833780820191505090505b5090505b600085146114da576001826114409190612348565b9150600a8561144f91906124ad565b603061145b91906122c1565b60f81b818381518110611497577f4e487b7100000000000000000000000000000000000000000000000000000000600052603260045260246000fd5b60200101907effffffffffffffffffffffffffffffffffffffffffffffffffffffffffffff1916908160001a905350600a856114d39190612317565b945061142b565b8093505050505b919050565b505050565b600061150c8473ffffffffffffffffffffffffffffffffffffffff16611682565b15611675578373ffffffffffffffffffffffffffffffffffffffff1663150b7a02611535610c82565b8786866040518563ffffffff1660e01b81526004016115579493929190611fb9565b602060405180830381600087803b15801561157157600080fd5b505af19250505080156115a257506040513d601f19601f8201168201806040525081019061159f9190611936565b60015b611625573d80600081146115d2576040519150601f19603f3d011682016040523d82523d6000602084013e6115d7565b606091505b5060008151141561161d576040517f08c379a000000000000000000000000000000000000000000000000000000000815260040161161490612042565b60405180910390fd5b805181602001fd5b63150b7a0260e01b7bffffffffffffffffffffffffffffffffffffffffffffffffffffffff1916817bffffffffffffffffffffffffffffffffffffffffffffffffffffffff19161491505061167a565b600190505b949350505050565b600080823b905060008111915050919050565b60006116a86116a38461224e565b61221d565b9050828152602081018484840111156116c057600080fd5b6116cb8482856123f0565b509392505050565b6000813590506116e2816125ab565b92915050565b6000813590506116f7816125c2565b92915050565b60008135905061170c816125d9565b92915050565b600081519050611721816125d9565b92915050565b600082601f83011261173857600080fd5b8135611748848260208601611695565b91505092915050565b600081359050611760816125f0565b92915050565b60006020828403121561177857600080fd5b6000611786848285016116d3565b91505092915050565b600080604083850312156117a257600080fd5b60006117b0858286016116d3565b92505060206117c1858286016116d3565b9150509250929050565b6000806000606084860312156117e057600080fd5b60006117ee868287016116d3565b93505060206117ff868287016116d3565b925050604061181086828701611751565b9150509250925092565b6000806000806080858703121561183057600080fd5b600061183e878288016116d3565b945050602061184f878288016116d3565b935050604061186087828801611751565b925050606085013567ffffffffffffffff81111561187d57600080fd5b61188987828801611727565b91505092959194509250565b600080604083850312156118a857600080fd5b60006118b6858286016116d3565b92505060206118c7858286016116e8565b9150509250929050565b600080604083850312156118e457600080fd5b60006118f2858286016116d3565b925050602061190385828601611751565b9150509250929050565b60006020828403121561191f57600080fd5b600061192d848285016116fd565b91505092915050565b60006020828403121561194857600080fd5b600061195684828501611712565b91505092915050565b60006020828403121561197157600080fd5b600061197f84828501611751565b91505092915050565b6119918161237c565b82525050565b6119a08161238e565b82525050565b60006119b18261227e565b6119bb8185612294565b93506119cb8185602086016123ff565b6119d48161259a565b840191505092915050565b60006119ea82612289565b6119f481856122a5565b9350611a048185602086016123ff565b611a0d8161259a565b840191505092915050565b6000611a2382612289565b611a2d81856122b6565b9350611a3d8185602086016123ff565b80840191505092915050565b6000611a566032836122a5565b91507f4552433732313a207472616e7366657220746f206e6f6e20455243373231526560008301527f63656976657220696d706c656d656e74657200000000000000000000000000006020830152604082019050919050565b6000611abc601c836122a5565b91507f4552433732313a20746f6b656e20616c7265616479206d696e746564000000006000830152602082019050919050565b6000611afc6024836122a5565b91507f4552433732313a207472616e7366657220746f20746865207a65726f2061646460008301527f72657373000000000000000000000000000000000000000000000000000000006020830152604082019050919050565b6000611b626019836122a5565b91507f4552433732313a20617070726f766520746f2063616c6c6572000000000000006000830152602082019050919050565b6000611ba2602c836122a5565b91507f4552433732313a206f70657261746f7220717565727920666f72206e6f6e657860008301527f697374656e7420746f6b656e00000000000000000000000000000000000000006020830152604082019050919050565b6000611c086038836122a5565b91507f4552433732313a20617070726f76652063616c6c6572206973206e6f74206f7760008301527f6e6572206e6f7220617070726f76656420666f7220616c6c00000000000000006020830152604082019050919050565b6000611c6e602a836122a5565b91507f4552433732313a2062616c616e636520717565727920666f7220746865207a6560008301527f726f2061646472657373000000000000000000000000000000000000000000006020830152604082019050919050565b6000611cd46029836122a5565b91507f4552433732313a206f776e657220717565727920666f72206e6f6e657869737460008301527f656e7420746f6b656e00000000000000000000000000000000000000000000006020830152604082019050919050565b6000611d3a6020836122a5565b91507f4552433732313a206d696e7420746f20746865207a65726f20616464726573736000830152602082019050919050565b6000611d7a602c836122a5565b91507f4552433732313a20617070726f76656420717565727920666f72206e6f6e657860008301527f697374656e7420746f6b656e00000000000000000000000000000000000000006020830152604082019050919050565b6000611de06029836122a5565b91507f4552433732313a207472616e73666572206f6620746f6b656e2074686174206960008301527f73206e6f74206f776e00000000000000000000000000000000000000000000006020830152604082019050919050565b6000611e46602f836122a5565b91507f4552433732314d657461646174613a2055524920717565727920666f72206e6f60008301527f6e6578697374656e7420746f6b656e00000000000000000000000000000000006020830152604082019050919050565b6000611eac6021836122a5565b91507f4552433732313a20617070726f76616c20746f2063757272656e74206f776e6560008301527f72000000000000000000000000000000000000000000000000000000000000006020830152604082019050919050565b6000611f126031836122a5565b91507f4552433732313a207472616e736665722063616c6c6572206973206e6f74206f60008301527f776e6572206e6f7220617070726f7665640000000000000000000000000000006020830152604082019050919050565b611f74816123e6565b82525050565b6000611f868285611a18565b9150611f928284611a18565b91508190509392505050565b6000602082019050611fb36000830184611988565b92915050565b6000608082019050611fce6000830187611988565b611fdb6020830186611988565b611fe86040830185611f6b565b8181036060830152611ffa81846119a6565b905095945050505050565b600060208201905061201a6000830184611997565b92915050565b6000602082019050818103600083015261203a81846119df565b905092915050565b6000602082019050818103600083015261205b81611a49565b9050919050565b6000602082019050818103600083015261207b81611aaf565b9050919050565b6000602082019050818103600083015261209b81611aef565b9050919050565b600060208201905081810360008301526120bb81611b55565b9050919050565b600060208201905081810360008301526120db81611b95565b9050919050565b600060208201905081810360008301526120fb81611bfb565b9050919050565b6000602082019050818103600083015261211b81611c61565b9050919050565b6000602082019050818103600083015261213b81611cc7565b9050919050565b6000602082019050818103600083015261215b81611d2d565b9050919050565b6000602082019050818103600083015261217b81611d6d565b9050919050565b6000602082019050818103600083015261219b81611dd3565b9050919050565b600060208201905081810360008301526121bb81611e39565b9050919050565b600060208201905081810360008301526121db81611e9f565b9050919050565b600060208201905081810360008301526121fb81611f05565b9050919050565b60006020820190506122176000830184611f6b565b92915050565b6000604051905081810181811067ffffffffffffffff821117156122445761224361256b565b5b8060405250919050565b600067ffffffffffffffff8211156122695761226861256b565b5b601f19601f8301169050602081019050919050565b600081519050919050565b600081519050919050565b600082825260208201905092915050565b600082825260208201905092915050565b600081905092915050565b60006122cc826123e6565b91506122d7836123e6565b9250827fffffffffffffffffffffffffffffffffffffffffffffffffffffffffffffffff0382111561230c5761230b6124de565b5b828201905092915050565b6000612322826123e6565b915061232d836123e6565b92508261233d5761233c61250d565b5b828204905092915050565b6000612353826123e6565b915061235e836123e6565b925082821015612371576123706124de565b5b828203905092915050565b6000612387826123c6565b9050919050565b60008115159050919050565b60007fffffffff0000000000000000000000000000000000000000000000000000000082169050919050565b600073ffffffffffffffffffffffffffffffffffffffff82169050919050565b6000819050919050565b82818337600083830152505050565b60005b8381101561241d578082015181840152602081019050612402565b8381111561242c576000848401525b50505050565b6000600282049050600182168061244a57607f821691505b6020821081141561245e5761245d61253c565b5b50919050565b600061246f826123e6565b91507fffffffffffffffffffffffffffffffffffffffffffffffffffffffffffffffff8214156124a2576124a16124de565b5b600182019050919050565b60006124b8826123e6565b91506124c3836123e6565b9250826124d3576124d261250d565b5b828206905092915050565b7f4e487b7100000000000000000000000000000000000000000000000000000000600052601160045260246000fd5b7f4e487b7100000000000000000000000000000000000000000000000000000000600052601260045260246000fd5b7f4e487b7100000000000000000000000000000000000000000000000000000000600052602260045260246000fd5b7f4e487b7100000000000000000000000000000000000000000000000000000000600052604160045260246000fd5b6000601f19601f8301169050919050565b6125b48161237c565b81146125bf57600080fd5b50565b6125cb8161238e565b81146125d657600080fd5b50565b6125e28161239a565b81146125ed57600080fd5b50565b6125f9816123e6565b811461260457600080fd5b5056fea2646970667358221220d6590f40a83603c21798c8ad2b2e682325457c78ebc0bc349ef70c3c32b7933d64736f6c6343000800003360806040523480156200001157600080fd5b5060405162000f7638038062000f768339818101604052810190620000379190620001c4565b620000576200004b620000e160201b60201c565b620000e960201b60201c565b81600260006101000a81548173ffffffffffffffffffffffffffffffffffffffff021916908373ffffffffffffffffffffffffffffffffffffffff16021790555080600360006101000a81548173ffffffffffffffffffffffffffffffffffffffff021916908373ffffffffffffffffffffffffffffffffffffffff160217905550505062000253565b600033905090565b60008060009054906101000a900473ffffffffffffffffffffffffffffffffffffffff169050816000806101000a81548173ffffffffffffffffffffffffffffffffffffffff021916908373ffffffffffffffffffffffffffffffffffffffff1602179055508173ffffffffffffffffffffffffffffffffffffffff168173ffffffffffffffffffffffffffffffffffffffff167f8be0079c531659141344cd1fd0a4f28419497f9722a3daafe3b4186f6b6457e060405160405180910390a35050565b600081519050620001be8162000239565b92915050565b60008060408385031215620001d857600080fd5b6000620001e885828601620001ad565b9250506020620001fb85828601620001ad565b9150509250929050565b6000620002128262000219565b9050919050565b600073ffffffffffffffffffffffffffffffffffffffff82169050919050565b620002448162000205565b81146200025057600080fd5b50565b610d1380620002636000396000f3fe60806040526004361061007b5760003560e01c80638da5cb5b1161004e5780638da5cb5b146101145780639625001f1461013f578063c09ace601461016f578063f2fde38b1461019a5761007b565b80632048e195146100805780636588103b146100a9578063715018a6146100d457806384f2d6e9146100eb575b600080fd5b34801561008c57600080fd5b506100a760048036038101906100a291906107c0565b6101c3565b005b3480156100b557600080fd5b506100be610207565b6040516100cb91906109e3565b60405180910390f35b3480156100e057600080fd5b506100e961022d565b005b3480156100f757600080fd5b50610112600480360381019061010d91906107c0565b6102b5565b005b34801561012057600080fd5b506101296102f9565b60405161013691906109e3565b60405180910390f35b610159600480360381019061015491906107e9565b610322565b6040516101669190610ad7565b60405180910390f35b34801561017b57600080fd5b50610184610544565b60405161019191906109e3565b60405180910390f35b3480156101a657600080fd5b506101c160048036038101906101bc91906107c0565b61056a565b005b80600260006101000a81548173ffffffffffffffffffffffffffffffffffffffff021916908373ffffffffffffffffffffffffffffffffffffffff16021790555050565b600360009054906101000a900473ffffffffffffffffffffffffffffffffffffffff1681565b610235610662565b73ffffffffffffffffffffffffffffffffffffffff166102536102f9565b73ffffffffffffffffffffffffffffffffffffffff16146102a9576040517f08c379a00000000000000000000000000000000000000000000000000000000081526004016102a090610a97565b60405180910390fd5b6102b3600061066a565b565b80600360006101000a81548173ffffffffffffffffffffffffffffffffffffffff021916908373ffffffffffffffffffffffffffffffffffffffff16021790555050565b60008060009054906101000a900473ffffffffffffffffffffffffffffffffffffffff16905090565b600080600260009054906101000a900473ffffffffffffffffffffffffffffffffffffffff1673ffffffffffffffffffffffffffffffffffffffff166376977a3a85856040518363ffffffff1660e01b81526004016103829291906109fe565b602060405180830381600087803b15801561039c57600080fd5b505af11580156103b0573d6000803e3d6000fd5b505050506040513d601f19601f820116820180604052508101906103d4919061083d565b9050600073ffffffffffffffffffffffffffffffffffffffff163373ffffffffffffffffffffffffffffffffffffffff161415610446576040517f08c379a000000000000000000000000000000000000000000000000000000000815260040161043d90610a77565b60405180910390fd5b803414610488576040517f08c379a000000000000000000000000000000000000000000000000000000000815260040161047f90610ab7565b60405180910390fd5b6001600081548092919061049b90610bf7565b9190505550600360009054906101000a900473ffffffffffffffffffffffffffffffffffffffff1673ffffffffffffffffffffffffffffffffffffffff166340c10f196104e6610662565b6001546040518363ffffffff1660e01b8152600401610506929190610a2e565b600060405180830381600087803b15801561052057600080fd5b505af1158015610534573d6000803e3d6000fd5b5050505060015491505092915050565b600260009054906101000a900473ffffffffffffffffffffffffffffffffffffffff1681565b610572610662565b73ffffffffffffffffffffffffffffffffffffffff166105906102f9565b73ffffffffffffffffffffffffffffffffffffffff16146105e6576040517f08c379a00000000000000000000000000000000000000000000000000000000081526004016105dd90610a97565b60405180910390fd5b600073ffffffffffffffffffffffffffffffffffffffff168173ffffffffffffffffffffffffffffffffffffffff161415610656576040517f08c379a000000000000000000000000000000000000000000000000000000000815260040161064d90610a57565b60405180910390fd5b61065f8161066a565b50565b600033905090565b60008060009054906101000a900473ffffffffffffffffffffffffffffffffffffffff169050816000806101000a81548173ffffffffffffffffffffffffffffffffffffffff021916908373ffffffffffffffffffffffffffffffffffffffff1602179055508173ffffffffffffffffffffffffffffffffffffffff168173ffffffffffffffffffffffffffffffffffffffff167f8be0079c531659141344cd1fd0a4f28419497f9722a3daafe3b4186f6b6457e060405160405180910390a35050565b600061074161073c84610b23565b610af2565b90508281526020810184848401111561075957600080fd5b610764848285610bb5565b509392505050565b60008135905061077b81610caf565b92915050565b60008151905061079081610cc6565b92915050565b600082601f8301126107a757600080fd5b81356107b784826020860161072e565b91505092915050565b6000602082840312156107d257600080fd5b60006107e08482850161076c565b91505092915050565b600080604083850312156107fc57600080fd5b600061080a8582860161076c565b925050602083013567ffffffffffffffff81111561082757600080fd5b61083385828601610796565b9150509250929050565b60006020828403121561084f57600080fd5b600061085d84828501610781565b91505092915050565b61086f81610b6f565b82525050565b600061088082610b53565b61088a8185610b5e565b935061089a818560208601610bc4565b6108a381610c9e565b840191505092915050565b60006108bb602683610b5e565b91507f4f776e61626c653a206e6577206f776e657220697320746865207a65726f206160008301527f64647265737300000000000000000000000000000000000000000000000000006020830152604082019050919050565b6000610921601783610b5e565b91507f416464726573732063616e6e6f7420626520656d7074790000000000000000006000830152602082019050919050565b6000610961602083610b5e565b91507f4f776e61626c653a2063616c6c6572206973206e6f7420746865206f776e65726000830152602082019050919050565b60006109a1601583610b5e565b91507f416d6f756e74206973206e6f7420636f727265637400000000000000000000006000830152602082019050919050565b6109dd81610bab565b82525050565b60006020820190506109f86000830184610866565b92915050565b6000604082019050610a136000830185610866565b8181036020830152610a258184610875565b90509392505050565b6000604082019050610a436000830185610866565b610a5060208301846109d4565b9392505050565b60006020820190508181036000830152610a70816108ae565b9050919050565b60006020820190508181036000830152610a9081610914565b9050919050565b60006020820190508181036000830152610ab081610954565b9050919050565b60006020820190508181036000830152610ad081610994565b9050919050565b6000602082019050610aec60008301846109d4565b92915050565b6000604051905081810181811067ffffffffffffffff82111715610b1957610b18610c6f565b5b8060405250919050565b600067ffffffffffffffff821115610b3e57610b3d610c6f565b5b601f19601f8301169050602081019050919050565b600081519050919050565b600082825260208201905092915050565b6000610b7a82610b8b565b9050919050565b6000819050919050565b600073ffffffffffffffffffffffffffffffffffffffff82169050919050565b6000819050919050565b82818337600083830152505050565b60005b83811015610be2578082015181840152602081019050610bc7565b83811115610bf1576000848401525b50505050565b6000610c0282610bab565b91507fffffffffffffffffffffffffffffffffffffffffffffffffffffffffffffffff821415610c3557610c34610c40565b5b600182019050919050565b7f4e487b7100000000000000000000000000000000000000000000000000000000600052601160045260246000fd5b7f4e487b7100000000000000000000000000000000000000000000000000000000600052604160045260246000fd5b6000601f19601f8301169050919050565b610cb881610b6f565b8114610cc357600080fd5b50565b610ccf81610b81565b8114610cda57600080fd5b5056fea2646970667358221220d3513ced6a587e3a8828deb9598cc53ee03aee95e2bc749e66a26fcae3969e7f64736f6c63430008000033608060405234801561001057600080fd5b50739326bfa02add2366b30bacb125260af6410313316000806101000a81548173ffffffffffffffffffffffffffffffffffffffff021916908373ffffffffffffffffffffffffffffffffffffffff16021790555061028f806100746000396000f3fe608060405234801561001057600080fd5b506004361061002b5760003560e01c80638c3c9a5514610030575b600080fd5b61003861004e565b60405161004591906101cf565b60405180910390f35b60008060008060008060008054906101000a900473ffffffffffffffffffffffffffffffffffffffff1673ffffffffffffffffffffffffffffffffffffffff1663feaf968c6040518163ffffffff1660e01b815260040160a06040518083038186803b1580156100bd57600080fd5b505afa1580156100d1573d6000803e3d6000fd5b505050506040513d601f19601f820116820180604052508101906100f59190610149565b94509450945094509450839550505050505090565b60008151905061011981610214565b92915050565b60008151905061012e8161022b565b92915050565b60008151905061014381610242565b92915050565b600080600080600060a0868803121561016157600080fd5b600061016f88828901610134565b95505060206101808882890161010a565b94505060406101918882890161011f565b93505060606101a28882890161011f565b92505060806101b388828901610134565b9150509295509295909350565b6101c9816101ea565b82525050565b60006020820190506101e460008301846101c0565b92915050565b6000819050919050565b6000819050919050565b600069ffffffffffffffffffff82169050919050565b61021d816101ea565b811461022857600080fd5b50565b610234816101f4565b811461023f57600080fd5b50565b61024b816101fe565b811461025657600080fd5b5056fea264697066735822122045d20faaf78053c1dabbbfc8f1efb636402693840ff4c8e8fa9cd92cad06a74864736f6c63430008000033a2646970667358221220cb6280153a9ff3be8783ebf330f3628c2e957e38e16381ba07270b37789031e264736f6c63430008000033",
  "immutableReferences": {},
  "source": "// SPDX-License-Identifier: MIT\r\npragma solidity ^0.8.0;\r\n\r\nimport \"@openzeppelin/contracts/access/Ownable.sol\";\r\nimport \"@openzeppelin/contracts/token/ERC721/ERC721.sol\";\r\nimport \"./interfaces/IEventsManagment.sol\";\r\nimport \"./PriceConsumerV3.sol\";\r\nimport \"./ConsumerEvent.sol\";\r\n\r\ncontract EventsManagment is IEventsManagment, Ownable {\r\n\r\n    int private priceUsdinUahRate = 27;\r\n    address public priceConsumerV3Address;\r\n\r\n    struct eventDetails {\r\n        string eventName; // The name of event;\r\n        string eventDescription; // The description of event;\r\n        string eventDates; // Event dates;\r\n        string eventPlace; // Event place;\r\n        bool eventStatus; // Active - 1; Not active - 0;\r\n        address nftCollectionAddress;\r\n    }\r\n\r\n    struct ticketDetails {\r\n        uint8 ticketIndex;\r\n        string ticketName;\r\n        int ticketPrice;\r\n        uint8 ticketAmount;\r\n    }\r\n\r\n     // Information about all events;\r\n    mapping (address => eventDetails) private Events;\r\n\r\n     // Information about all tickets within event;\r\n    mapping (address => ticketDetails[]) private Tickets;\r\n\r\n    // function to update USD to UAH rate\r\n    function updateUsdinUahRate (int _priceUsdinUahRate) onlyOwner public returns (int) {\r\n      priceUsdinUahRate = _priceUsdinUahRate;\r\n      return priceUsdinUahRate;\r\n    }\r\n\r\n    // function to create new event\r\n\r\n    function createEvent (\r\n        bytes32 salt,\r\n        // uint arg,\r\n        string memory _eventName,\r\n        string memory _eventDescription,\r\n        string memory _eventDates,\r\n        string memory _eventPlace,\r\n        bool _eventStatus,\r\n        string memory name,\r\n        string memory symbol,\r\n        string memory baseTokenURI) onlyOwner public {\r\n            // Generate contract addresses via \"new\" statement\r\n\r\n            ERC721 _nftCollectionAddress = new ERC721 {salt: salt} (name,symbol,baseTokenURI);\r\n            ConsumerEvent eventContractAddress = new ConsumerEvent {salt: salt}(address(this), address(_nftCollectionAddress));\r\n            PriceConsumerV3 priceConsumerV3AddressInstance = new PriceConsumerV3 {salt: salt}();\r\n            priceConsumerV3Address = address(priceConsumerV3AddressInstance);\r\n\r\n            Events[address(eventContractAddress)].eventName = _eventName;\r\n            Events[address(eventContractAddress)].eventDescription = _eventDescription;\r\n            Events[address(eventContractAddress)].eventDates = _eventDates;\r\n            Events[address(eventContractAddress)].eventPlace = _eventPlace;\r\n            Events[address(eventContractAddress)].eventStatus = _eventStatus;\r\n            Events[address(eventContractAddress)].nftCollectionAddress = address(_nftCollectionAddress);\r\n        }\r\n\r\n    // activate o deactivate certain event. Active - 1; Not active - 0;\r\n    function changeEventStatus (address eventContractAddress, bool _eventStatus) onlyOwner public {\r\n        Events[eventContractAddress].eventStatus = _eventStatus;\r\n    }\r\n\r\n    // function to add new ticket to certain event.\r\n    // @ticketArray: [[0,\"StandardTicket\", 1500, 50] [1,\"Afetrparty\", 1750, 30] [2, \"VipTicket\", 3000, 20]]\r\n    function addTickets (address _eventContractAddress, ticketDetails[] calldata ticketArray) onlyOwner public {\r\n      for (uint8 i = 0; i < ticketArray.length; i++) {\r\n        Tickets[_eventContractAddress][i].ticketIndex = i;\r\n        Tickets[_eventContractAddress][i].ticketName = ticketArray[i].ticketName;\r\n        Tickets[_eventContractAddress][i].ticketPrice = ticketArray[i].ticketPrice;\r\n        Tickets[_eventContractAddress][i].ticketAmount = ticketArray[i].ticketAmount;\r\n      }\r\n    }\r\n\r\n    function loop (address _eventContractAddress,string memory _ticketName) internal view returns (uint8) {\r\n        uint8 j = 0;\r\n        while (keccak256(abi.encodePacked(Tickets[_eventContractAddress][j].ticketName)) != keccak256(abi.encodePacked(_ticketName))) {j++;} return j;\r\n    }\r\n\r\n    function getPrice(address _eventContractAddress, string memory _ticketName) public view override returns (int) {\r\n        int priceEthInUSD = PriceConsumerV3(priceConsumerV3Address).getThePrice();\r\n        int priceEthInUAH = priceEthInUSD * priceUsdinUahRate;\r\n        uint8 index = loop(_eventContractAddress,_ticketName);\r\n        int price = Tickets[_eventContractAddress][index].ticketPrice / priceEthInUAH;\r\n        return price;\r\n    }\r\n\r\n    // Metadata functions\r\n\r\n    /* function getNftCollectionAddress (address _eventContractAddress) public override view returns (address) {\r\n      return Events[_eventContractAddress].nftCollectionAddress;\r\n    }\r\n\r\n    function getEventStatus (address _eventContractAddress) public override view returns (bool) {\r\n      return Events[_eventContractAddress].eventStatus;\r\n    } */\r\n\r\n    function getEventName (address _eventContractAddress) public override view returns (string memory) {\r\n      return Events[_eventContractAddress].eventName;\r\n    }\r\n\r\n    function getEventDescription (address _eventContractAddress) public override view returns (string memory) {\r\n      return Events[_eventContractAddress].eventDescription;\r\n    }\r\n\r\n    function getEventDates (address _eventContractAddress) public override view returns (string memory) {\r\n      return Events[_eventContractAddress].eventDates;\r\n    }\r\n\r\n    function getEventPlace (address _eventContractAddress) public override view returns (string memory) {\r\n      return Events[_eventContractAddress].eventPlace;\r\n    }\r\n\r\n}\r\n",
  "sourcePath": "C:\\Users\\User\\Desktop\\Ethereum\\EventsManagment\\contracts\\EventsManagment.sol",
  "compiler": {
    "name": "solc",
    "version": "0.8.0+commit.c7dfd78e.Emscripten.clang"
  },
  "schemaVersion": "3.3.3",
  "updatedAt": "2021-07-30T16:15:34.451Z",
  "devdoc": {
    "kind": "dev",
    "methods": {
      "owner()": {
        "details": "Returns the address of the current owner."
      },
      "renounceOwnership()": {
        "details": "Leaves the contract without owner. It will not be possible to call `onlyOwner` functions anymore. Can only be called by the current owner. NOTE: Renouncing ownership will leave the contract without an owner, thereby removing any functionality that is only available to the owner."
      },
      "transferOwnership(address)": {
        "details": "Transfers ownership of the contract to a new account (`newOwner`). Can only be called by the current owner."
      }
    },
    "version": 1
  },
  "userdoc": {
    "kind": "user",
    "methods": {},
    "version": 1
  }
}