{
  "contractName": "PriceConsumerV3",
  "abi": [
    {
      "inputs": [],
      "stateMutability": "nonpayable",
      "type": "constructor"
    },
    {
      "inputs": [],
      "name": "getThePrice",
      "outputs": [
        {
          "internalType": "int256",
          "name": "",
          "type": "int256"
        }
      ],
      "stateMutability": "view",
      "type": "function"
    }
  ],
  "bytecode": "0x608060405234801561001057600080fd5b50739326bfa02add2366b30bacb125260af6410313316000806101000a81548173ffffffffffffffffffffffffffffffffffffffff021916908373ffffffffffffffffffffffffffffffffffffffff16021790555061028f806100746000396000f3fe608060405234801561001057600080fd5b506004361061002b5760003560e01c80638c3c9a5514610030575b600080fd5b61003861004e565b60405161004591906101cf565b60405180910390f35b60008060008060008060008054906101000a900473ffffffffffffffffffffffffffffffffffffffff1673ffffffffffffffffffffffffffffffffffffffff1663feaf968c6040518163ffffffff1660e01b815260040160a06040518083038186803b1580156100bd57600080fd5b505afa1580156100d1573d6000803e3d6000fd5b505050506040513d601f19601f820116820180604052508101906100f59190610149565b94509450945094509450839550505050505090565b60008151905061011981610214565b92915050565b60008151905061012e8161022b565b92915050565b60008151905061014381610242565b92915050565b600080600080600060a0868803121561016157600080fd5b600061016f88828901610134565b95505060206101808882890161010a565b94505060406101918882890161011f565b93505060606101a28882890161011f565b92505060806101b388828901610134565b9150509295509295909350565b6101c9816101ea565b82525050565b60006020820190506101e460008301846101c0565b92915050565b6000819050919050565b6000819050919050565b600069ffffffffffffffffffff82169050919050565b61021d816101ea565b811461022857600080fd5b50565b610234816101f4565b811461023f57600080fd5b50565b61024b816101fe565b811461025657600080fd5b5056fea264697066735822122045d20faaf78053c1dabbbfc8f1efb636402693840ff4c8e8fa9cd92cad06a74864736f6c63430008000033",
  "immutableReferences": {},
  "source": "// SPDX-License-Identifier: MIT\r\npragma solidity ^0.8.0;\r\nimport \"@chainlink/contracts/src/v0.8/interfaces/AggregatorV3Interface.sol\";\r\n\r\ncontract PriceConsumerV3 {\r\n\r\n   AggregatorV3Interface internal priceFeed;\r\n\r\n   /**\r\n    * Network: Kovan\r\n    * Aggregator: ETH/USD\r\n    * Address: 0x9326BFA02ADD2366b30bacB125260Af641031331\r\n    */\r\n   constructor() {\r\n       priceFeed = AggregatorV3Interface(0x9326BFA02ADD2366b30bacB125260Af641031331);\r\n   }\r\n\r\n   /**\r\n    * Returns the latest price\r\n    */\r\n   function getThePrice() public view returns (int) {\r\n       (\r\n           uint80 roundID,\r\n           int price,\r\n           uint startedAt,\r\n           uint timeStamp,\r\n           uint80 answeredInRound\r\n       ) = priceFeed.latestRoundData();\r\n       return price;\r\n   }\r\n}\r\n",
  "sourcePath": "C:\\Users\\User\\Desktop\\Ethereum\\EventsManagment\\contracts\\PriceConsumerV3.sol",
  "compiler": {
    "name": "solc",
    "version": "0.8.0+commit.c7dfd78e.Emscripten.clang"
  },
  "schemaVersion": "3.3.3",
  "updatedAt": "2021-07-30T16:15:34.463Z",
  "devdoc": {
    "kind": "dev",
    "methods": {},
    "version": 1
  },
  "userdoc": {
    "kind": "user",
    "methods": {
      "constructor": {
        "notice": "Network: Kovan Aggregator: ETH/USD Address: 0x9326BFA02ADD2366b30bacB125260Af641031331"
      },
      "getThePrice()": {
        "notice": "Returns the latest price"
      }
    },
    "version": 1
  }
}